{
  "contractName": "Escrow",
  "abi": [
    {
      "inputs": [
        {
          "internalType": "address",
          "name": "_buyer",
          "type": "address"
        },
        {
          "internalType": "address payable",
          "name": "_seller",
          "type": "address"
        }
      ],
      "stateMutability": "nonpayable",
      "type": "constructor"
    },
    {
      "inputs": [],
      "name": "buyer",
      "outputs": [
        {
          "internalType": "address",
          "name": "",
          "type": "address"
        }
      ],
      "stateMutability": "view",
      "type": "function"
    },
    {
      "inputs": [],
      "name": "seller",
      "outputs": [
        {
          "internalType": "address payable",
          "name": "",
          "type": "address"
        }
      ],
      "stateMutability": "view",
      "type": "function"
    },
    {
      "inputs": [],
      "name": "status",
      "outputs": [
        {
          "internalType": "enum Escrow.EscrowStatus",
          "name": "",
          "type": "uint8"
        }
      ],
      "stateMutability": "view",
      "type": "function"
    },
    {
      "inputs": [],
      "name": "depositFunds",
      "outputs": [],
      "stateMutability": "payable",
      "type": "function"
    },
    {
      "inputs": [
        {
          "internalType": "uint256",
          "name": "amount",
          "type": "uint256"
        }
      ],
      "name": "releaseFunds",
      "outputs": [],
      "stateMutability": "nonpayable",
      "type": "function"
    },
    {
      "inputs": [],
      "name": "refundFunds",
      "outputs": [],
      "stateMutability": "nonpayable",
      "type": "function"
    }
  ],
  "bytecode": "0x60806040523480156200001157600080fd5b5060405162000caa38038062000caa83398181016040528101906200003791906200019d565b816000806101000a81548173ffffffffffffffffffffffffffffffffffffffff021916908373ffffffffffffffffffffffffffffffffffffffff16021790555080600160006101000a81548173ffffffffffffffffffffffffffffffffffffffff021916908373ffffffffffffffffffffffffffffffffffffffff1602179055506000600160146101000a81548160ff02191690836003811115620000e157620000e0620001e4565b5b0217905550505062000213565b600080fd5b600073ffffffffffffffffffffffffffffffffffffffff82169050919050565b60006200012082620000f3565b9050919050565b620001328162000113565b81146200013e57600080fd5b50565b600081519050620001528162000127565b92915050565b60006200016582620000f3565b9050919050565b620001778162000158565b81146200018357600080fd5b50565b60008151905062000197816200016c565b92915050565b60008060408385031215620001b757620001b6620000ee565b5b6000620001c78582860162000141565b9250506020620001da8582860162000186565b9150509250929050565b7f4e487b7100000000000000000000000000000000000000000000000000000000600052602160045260246000fd5b610a8780620002236000396000f3fe6080604052600436106100555760003560e01c806308551a531461005a578063200d2ed21461008557806349569b82146100b05780634d68282f146100c75780637150d8ae146100f0578063e2c41dbc1461011b575b600080fd5b34801561006657600080fd5b5061006f610125565b60405161007c91906105f5565b60405180910390f35b34801561009157600080fd5b5061009a61014b565b6040516100a79190610687565b60405180910390f35b3480156100bc57600080fd5b506100c561015e565b005b3480156100d357600080fd5b506100ee60048036038101906100e991906106dd565b6102f8565b005b3480156100fc57600080fd5b506101056104d6565b604051610112919061072b565b60405180910390f35b6101236104fa565b005b600160009054906101000a900473ffffffffffffffffffffffffffffffffffffffff1681565b600160149054906101000a900460ff1681565b600160009054906101000a900473ffffffffffffffffffffffffffffffffffffffff1673ffffffffffffffffffffffffffffffffffffffff163373ffffffffffffffffffffffffffffffffffffffff16146101ee576040517f08c379a00000000000000000000000000000000000000000000000000000000081526004016101e5906107c9565b60405180910390fd5b6002600381111561020257610201610610565b5b600160149054906101000a900460ff16600381111561022457610223610610565b5b14610264576040517f08c379a000000000000000000000000000000000000000000000000000000000815260040161025b90610835565b60405180910390fd5b60008054906101000a900473ffffffffffffffffffffffffffffffffffffffff1673ffffffffffffffffffffffffffffffffffffffff166108fc479081150290604051600060405180830381858888f193505050501580156102ca573d6000803e3d6000fd5b506003600160146101000a81548160ff021916908360038111156102f1576102f0610610565b5b0217905550565b60008054906101000a900473ffffffffffffffffffffffffffffffffffffffff1673ffffffffffffffffffffffffffffffffffffffff163373ffffffffffffffffffffffffffffffffffffffff1614610386576040517f08c379a000000000000000000000000000000000000000000000000000000000815260040161037d906108c7565b60405180910390fd5b6001600381111561039a57610399610610565b5b600160149054906101000a900460ff1660038111156103bc576103bb610610565b5b146103fc576040517f08c379a00000000000000000000000000000000000000000000000000000000081526004016103f390610933565b60405180910390fd5b4781111561043f576040517f08c379a00000000000000000000000000000000000000000000000000000000081526004016104369061099f565b60405180910390fd5b600160009054906101000a900473ffffffffffffffffffffffffffffffffffffffff1673ffffffffffffffffffffffffffffffffffffffff166108fc829081150290604051600060405180830381858888f193505050501580156104a7573d6000803e3d6000fd5b506002600160146101000a81548160ff021916908360038111156104ce576104cd610610565b5b021790555050565b60008054906101000a900473ffffffffffffffffffffffffffffffffffffffff1681565b60008054906101000a900473ffffffffffffffffffffffffffffffffffffffff1673ffffffffffffffffffffffffffffffffffffffff163373ffffffffffffffffffffffffffffffffffffffff1614610588576040517f08c379a000000000000000000000000000000000000000000000000000000000815260040161057f90610a31565b60405180910390fd5b60018060146101000a81548160ff021916908360038111156105ad576105ac610610565b5b0217905550565b600073ffffffffffffffffffffffffffffffffffffffff82169050919050565b60006105df826105b4565b9050919050565b6105ef816105d4565b82525050565b600060208201905061060a60008301846105e6565b92915050565b7f4e487b7100000000000000000000000000000000000000000000000000000000600052602160045260246000fd5b600481106106505761064f610610565b5b50565b60008190506106618261063f565b919050565b600061067182610653565b9050919050565b61068181610666565b82525050565b600060208201905061069c6000830184610678565b92915050565b600080fd5b6000819050919050565b6106ba816106a7565b81146106c557600080fd5b50565b6000813590506106d7816106b1565b92915050565b6000602082840312156106f3576106f26106a2565b5b6000610701848285016106c8565b91505092915050565b6000610715826105b4565b9050919050565b6107258161070a565b82525050565b6000602082019050610740600083018461071c565b92915050565b600082825260208201905092915050565b7f4f6e6c79207468652073656c6c65722063616e20726566756e642066756e647360008201527f2e00000000000000000000000000000000000000000000000000000000000000602082015250565b60006107b3602183610746565b91506107be82610757565b604082019050919050565b600060208201905081810360008301526107e2816107a6565b9050919050565b7f46756e647320617265206e6f742072656c656173656420796574000000000000600082015250565b600061081f601a83610746565b915061082a826107e9565b602082019050919050565b6000602082019050818103600083015261084e81610812565b9050919050565b7f4f6e6c79207468652062757965722063616e2072656c656173652066756e647360008201527f2e00000000000000000000000000000000000000000000000000000000000000602082015250565b60006108b1602183610746565b91506108bc82610855565b604082019050919050565b600060208201905081810360008301526108e0816108a4565b9050919050565b7f46756e6473206e6f7420796574206465706f73697465642e0000000000000000600082015250565b600061091d601883610746565b9150610928826108e7565b602082019050919050565b6000602082019050818103600083015261094c81610910565b9050919050565b7f496e73756666696369656e742066756e64732e00000000000000000000000000600082015250565b6000610989601383610746565b915061099482610953565b602082019050919050565b600060208201905081810360008301526109b88161097c565b9050919050565b7f4f6e6c79207468652062757965722063616e206465706f7369742066756e647360008201527f2e00000000000000000000000000000000000000000000000000000000000000602082015250565b6000610a1b602183610746565b9150610a26826109bf565b604082019050919050565b60006020820190508181036000830152610a4a81610a0e565b905091905056fea2646970667358221220f35d9a0abf9b25472d35ca6b1210ce6f12cd580a26a3825f6d0cefa90ba78bb864736f6c634300080a0033",
  "immutableReferences": {},
  "source": "// SPDX-License-Identifier: MIT\r\npragma solidity ^0.8.0;\r\n\r\ncontract Escrow {\r\n    enum EscrowStatus { AWAITING_PAYMENT, FUNDS_DEPOSITED, FUNDS_RELEASED, FUNDS_REFUNDED }\r\n\r\n    address public buyer;\r\n    address payable public seller;\r\n    EscrowStatus public status;\r\n\r\n    constructor(address _buyer, address payable _seller) {\r\n        buyer = _buyer;\r\n        seller = _seller;\r\n        status = EscrowStatus.AWAITING_PAYMENT;\r\n    }\r\n\r\n    function depositFunds() external payable {\r\n        require(msg.sender == buyer, \"Only the buyer can deposit funds.\");\r\n\r\n        status = EscrowStatus.FUNDS_DEPOSITED;\r\n    }\r\n\r\n    function releaseFunds(uint256 amount) external {\r\n        require(msg.sender == buyer, \"Only the buyer can release funds.\");\r\n        require(status == EscrowStatus.FUNDS_DEPOSITED, \"Funds not yet deposited.\");\r\n        require(amount <= address(this).balance, \"Insufficient funds.\");\r\n\r\n        seller.transfer(amount);\r\n        status = EscrowStatus.FUNDS_RELEASED;\r\n    }\r\n\r\n    function refundFunds() external {\r\n        require(msg.sender == seller, \"Only the seller can refund funds.\");\r\n        require(status == EscrowStatus.FUNDS_RELEASED, \"Funds are not released yet\");\r\n\r\n        payable(buyer).transfer(address(this).balance);\r\n        status = EscrowStatus.FUNDS_REFUNDED;\r\n    }\r\n}\r\n",
  "sourcePath": "C:\\Users\\VN636MX\\OneDrive - EY\\Documents\\Truffle Tests\\DAY2\\ESCROW\\contracts\\Escrow.sol",
  "compiler": {
    "name": "solc",
    "version": "0.8.10+commit.fc410830.Emscripten.clang"
  },
  "schemaVersion": "3.4.14",
  "updatedAt": "2023-06-22T10:20:16.707Z",
  "devdoc": {
    "kind": "dev",
    "methods": {},
    "version": 1
  },
  "userdoc": {
    "kind": "user",
    "methods": {},
    "version": 1
  }
}